{
  "_format": "hh-sol-artifact-1",
  "contractName": "BillionDollarCalendar",
  "sourceName": "contracts/BillionDollarCalendar.sol",
  "abi": [
    {
      "inputs": [],
      "stateMutability": "nonpayable",
      "type": "constructor"
    },
    {
      "anonymous": false,
      "inputs": [
        {
          "indexed": true,
          "internalType": "address",
          "name": "owner",
          "type": "address"
        },
        {
          "indexed": true,
          "internalType": "address",
          "name": "approved",
          "type": "address"
        },
        {
          "indexed": true,
          "internalType": "uint256",
          "name": "tokenId",
          "type": "uint256"
        }
      ],
      "name": "Approval",
      "type": "event"
    },
    {
      "anonymous": false,
      "inputs": [
        {
          "indexed": true,
          "internalType": "address",
          "name": "owner",
          "type": "address"
        },
        {
          "indexed": true,
          "internalType": "address",
          "name": "operator",
          "type": "address"
        },
        {
          "indexed": false,
          "internalType": "bool",
          "name": "approved",
          "type": "bool"
        }
      ],
      "name": "ApprovalForAll",
      "type": "event"
    },
    {
      "anonymous": false,
      "inputs": [
        {
          "indexed": true,
          "internalType": "address",
          "name": "from",
          "type": "address"
        },
        {
          "indexed": true,
          "internalType": "address",
          "name": "to",
          "type": "address"
        },
        {
          "indexed": true,
          "internalType": "uint256",
          "name": "tokenId",
          "type": "uint256"
        }
      ],
      "name": "Transfer",
      "type": "event"
    },
    {
      "inputs": [
        {
          "internalType": "address",
          "name": "to",
          "type": "address"
        },
        {
          "internalType": "uint256",
          "name": "tokenId",
          "type": "uint256"
        }
      ],
      "name": "approve",
      "outputs": [],
      "stateMutability": "nonpayable",
      "type": "function"
    },
    {
      "inputs": [
        {
          "internalType": "address",
          "name": "owner",
          "type": "address"
        }
      ],
      "name": "balanceOf",
      "outputs": [
        {
          "internalType": "uint256",
          "name": "",
          "type": "uint256"
        }
      ],
      "stateMutability": "view",
      "type": "function"
    },
    {
      "inputs": [
        {
          "internalType": "uint8",
          "name": "month",
          "type": "uint8"
        },
        {
          "internalType": "uint8",
          "name": "day",
          "type": "uint8"
        },
        {
          "internalType": "uint16",
          "name": "year",
          "type": "uint16"
        },
        {
          "internalType": "string",
          "name": "tokenURI",
          "type": "string"
        }
      ],
      "name": "buyDate",
      "outputs": [
        {
          "internalType": "uint256",
          "name": "",
          "type": "uint256"
        }
      ],
      "stateMutability": "nonpayable",
      "type": "function"
    },
    {
      "inputs": [
        {
          "internalType": "string",
          "name": "",
          "type": "string"
        }
      ],
      "name": "dateOwners",
      "outputs": [
        {
          "internalType": "address",
          "name": "owner",
          "type": "address"
        },
        {
          "internalType": "string",
          "name": "tokenURI",
          "type": "string"
        }
      ],
      "stateMutability": "view",
      "type": "function"
    },
    {
      "inputs": [
        {
          "internalType": "uint256",
          "name": "tokenId",
          "type": "uint256"
        }
      ],
      "name": "getApproved",
      "outputs": [
        {
          "internalType": "address",
          "name": "",
          "type": "address"
        }
      ],
      "stateMutability": "view",
      "type": "function"
    },
    {
      "inputs": [
        {
          "internalType": "address",
          "name": "owner",
          "type": "address"
        },
        {
          "internalType": "address",
          "name": "operator",
          "type": "address"
        }
      ],
      "name": "isApprovedForAll",
      "outputs": [
        {
          "internalType": "bool",
          "name": "",
          "type": "bool"
        }
      ],
      "stateMutability": "view",
      "type": "function"
    },
    {
      "inputs": [],
      "name": "name",
      "outputs": [
        {
          "internalType": "string",
          "name": "",
          "type": "string"
        }
      ],
      "stateMutability": "view",
      "type": "function"
    },
    {
      "inputs": [
        {
          "internalType": "uint256",
          "name": "tokenId",
          "type": "uint256"
        }
      ],
      "name": "ownerOf",
      "outputs": [
        {
          "internalType": "address",
          "name": "",
          "type": "address"
        }
      ],
      "stateMutability": "view",
      "type": "function"
    },
    {
      "inputs": [
        {
          "internalType": "address",
          "name": "from",
          "type": "address"
        },
        {
          "internalType": "address",
          "name": "to",
          "type": "address"
        },
        {
          "internalType": "uint256",
          "name": "tokenId",
          "type": "uint256"
        }
      ],
      "name": "safeTransferFrom",
      "outputs": [],
      "stateMutability": "nonpayable",
      "type": "function"
    },
    {
      "inputs": [
        {
          "internalType": "address",
          "name": "from",
          "type": "address"
        },
        {
          "internalType": "address",
          "name": "to",
          "type": "address"
        },
        {
          "internalType": "uint256",
          "name": "tokenId",
          "type": "uint256"
        },
        {
          "internalType": "bytes",
          "name": "_data",
          "type": "bytes"
        }
      ],
      "name": "safeTransferFrom",
      "outputs": [],
      "stateMutability": "nonpayable",
      "type": "function"
    },
    {
      "inputs": [
        {
          "internalType": "address",
          "name": "operator",
          "type": "address"
        },
        {
          "internalType": "bool",
          "name": "approved",
          "type": "bool"
        }
      ],
      "name": "setApprovalForAll",
      "outputs": [],
      "stateMutability": "nonpayable",
      "type": "function"
    },
    {
      "inputs": [
        {
          "internalType": "bytes4",
          "name": "interfaceId",
          "type": "bytes4"
        }
      ],
      "name": "supportsInterface",
      "outputs": [
        {
          "internalType": "bool",
          "name": "",
          "type": "bool"
        }
      ],
      "stateMutability": "view",
      "type": "function"
    },
    {
      "inputs": [],
      "name": "symbol",
      "outputs": [
        {
          "internalType": "string",
          "name": "",
          "type": "string"
        }
      ],
      "stateMutability": "view",
      "type": "function"
    },
    {
      "inputs": [
        {
          "internalType": "uint256",
          "name": "tokenId",
          "type": "uint256"
        }
      ],
      "name": "tokenURI",
      "outputs": [
        {
          "internalType": "string",
          "name": "",
          "type": "string"
        }
      ],
      "stateMutability": "view",
      "type": "function"
    },
    {
      "inputs": [
        {
          "internalType": "address",
          "name": "from",
          "type": "address"
        },
        {
          "internalType": "address",
          "name": "to",
          "type": "address"
        },
        {
          "internalType": "uint256",
          "name": "tokenId",
          "type": "uint256"
        }
      ],
      "name": "transferFrom",
      "outputs": [],
      "stateMutability": "nonpayable",
      "type": "function"
    }
  ],
  "bytecode": "0x60806040523480156200001157600080fd5b506040518060400160405280600481526020017f44617465000000000000000000000000000000000000000000000000000000008152506040518060400160405280600481526020017f4441544500000000000000000000000000000000000000000000000000000000815250816000908051906020019062000096929190620000b8565b508060019080519060200190620000af929190620000b8565b505050620001cd565b828054620000c69062000168565b90600052602060002090601f016020900481019282620000ea576000855562000136565b82601f106200010557805160ff191683800117855562000136565b8280016001018555821562000136579182015b828111156200013557825182559160200191906001019062000118565b5b50905062000145919062000149565b5090565b5b80821115620001645760008160009055506001016200014a565b5090565b600060028204905060018216806200018157607f821691505b602082108114156200019857620001976200019e565b5b50919050565b7f4e487b7100000000000000000000000000000000000000000000000000000000600052602260045260246000fd5b61320780620001dd6000396000f3fe608060405234801561001057600080fd5b50600436106100f55760003560e01c80636352211e11610097578063b88d4fde11610066578063b88d4fde14610296578063c87b56dd146102b2578063d40384e7146102e2578063e985e9c514610313576100f5565b80636352211e146101fc57806370a082311461022c57806395d89b411461025c578063a22cb4651461027a576100f5565b8063095ea7b3116100d3578063095ea7b314610178578063100099a51461019457806323b872dd146101c457806342842e0e146101e0576100f5565b806301ffc9a7146100fa57806306fdde031461012a578063081812fc14610148575b600080fd5b610114600480360381019061010f919061210d565b610343565b6040516101219190612a9b565b60405180910390f35b610132610425565b60405161013f9190612ab6565b60405180910390f35b610162600480360381019061015d91906121a0565b6104b7565b60405161016f9190612a04565b60405180910390f35b610192600480360381019061018d91906120d1565b61053c565b005b6101ae60048036038101906101a991906121c9565b610654565b6040516101bb9190612cf8565b60405180910390f35b6101de60048036038101906101d99190611fcb565b6107d3565b005b6101fa60048036038101906101f59190611fcb565b610833565b005b610216600480360381019061021191906121a0565b610853565b6040516102239190612a04565b60405180910390f35b61024660048036038101906102419190611f66565b610905565b6040516102539190612cf8565b60405180910390f35b6102646109bd565b6040516102719190612ab6565b60405180910390f35b610294600480360381019061028f9190612095565b610a4f565b005b6102b060048036038101906102ab919061201a565b610bd0565b005b6102cc60048036038101906102c791906121a0565b610c32565b6040516102d99190612ab6565b60405180910390f35b6102fc60048036038101906102f7919061215f565b610d84565b60405161030a929190612a6b565b60405180910390f35b61032d60048036038101906103289190611f8f565b610e66565b60405161033a9190612a9b565b60405180910390f35b60007f80ac58cd000000000000000000000000000000000000000000000000000000007bffffffffffffffffffffffffffffffffffffffffffffffffffffffff1916827bffffffffffffffffffffffffffffffffffffffffffffffffffffffff1916148061040e57507f5b5e139f000000000000000000000000000000000000000000000000000000007bffffffffffffffffffffffffffffffffffffffffffffffffffffffff1916827bffffffffffffffffffffffffffffffffffffffffffffffffffffffff1916145b8061041e575061041d82610efa565b5b9050919050565b60606000805461043490612f9d565b80601f016020809104026020016040519081016040528092919081815260200182805461046090612f9d565b80156104ad5780601f10610482576101008083540402835291602001916104ad565b820191906000526020600020905b81548152906001019060200180831161049057829003601f168201915b5050505050905090565b60006104c282610f64565b610501576040517f08c379a00000000000000000000000000000000000000000000000000000000081526004016104f890612c38565b60405180910390fd5b6004600083815260200190815260200160002060009054906101000a900473ffffffffffffffffffffffffffffffffffffffff169050919050565b600061054782610853565b90508073ffffffffffffffffffffffffffffffffffffffff168373ffffffffffffffffffffffffffffffffffffffff1614156105b8576040517f08c379a00000000000000000000000000000000000000000000000000000000081526004016105af90612c98565b60405180910390fd5b8073ffffffffffffffffffffffffffffffffffffffff166105d7610fd0565b73ffffffffffffffffffffffffffffffffffffffff161480610606575061060581610600610fd0565b610e66565b5b610645576040517f08c379a000000000000000000000000000000000000000000000000000000000815260040161063c90612b78565b60405180910390fd5b61064f8383610fd8565b505050565b6000610661858585611091565b6106a0576040517f08c379a000000000000000000000000000000000000000000000000000000000815260040161069790612cd8565b60405180910390fd5b60006106ae8660ff166110dd565b6106ba8660ff166110dd565b6106c78661ffff166110dd565b6040516020016106d9939291906129bd565b60405160208183030381529060405290506106f46007611290565b600061070060076112a6565b905061070c33826112b4565b6107168185611482565b60405180604001604052803373ffffffffffffffffffffffffffffffffffffffff168152602001858152506008836040516107519190612982565b908152602001604051809103902060008201518160000160006101000a81548173ffffffffffffffffffffffffffffffffffffffff021916908373ffffffffffffffffffffffffffffffffffffffff16021790555060208201518160010190805190602001906107c2929190611d60565b509050508092505050949350505050565b6107e46107de610fd0565b826114f6565b610823576040517f08c379a000000000000000000000000000000000000000000000000000000000815260040161081a90612cb8565b60405180910390fd5b61082e8383836115d4565b505050565b61084e83838360405180602001604052806000815250610bd0565b505050565b6000806002600084815260200190815260200160002060009054906101000a900473ffffffffffffffffffffffffffffffffffffffff169050600073ffffffffffffffffffffffffffffffffffffffff168173ffffffffffffffffffffffffffffffffffffffff1614156108fc576040517f08c379a00000000000000000000000000000000000000000000000000000000081526004016108f390612bb8565b60405180910390fd5b80915050919050565b60008073ffffffffffffffffffffffffffffffffffffffff168273ffffffffffffffffffffffffffffffffffffffff161415610976576040517f08c379a000000000000000000000000000000000000000000000000000000000815260040161096d90612b98565b60405180910390fd5b600360008373ffffffffffffffffffffffffffffffffffffffff1673ffffffffffffffffffffffffffffffffffffffff168152602001908152602001600020549050919050565b6060600180546109cc90612f9d565b80601f01602080910402602001604051908101604052809291908181526020018280546109f890612f9d565b8015610a455780601f10610a1a57610100808354040283529160200191610a45565b820191906000526020600020905b815481529060010190602001808311610a2857829003601f168201915b5050505050905090565b610a57610fd0565b73ffffffffffffffffffffffffffffffffffffffff168273ffffffffffffffffffffffffffffffffffffffff161415610ac5576040517f08c379a0000000000000000000000000000000000000000000000000000000008152600401610abc90612b38565b60405180910390fd5b8060056000610ad2610fd0565b73ffffffffffffffffffffffffffffffffffffffff1673ffffffffffffffffffffffffffffffffffffffff16815260200190815260200160002060008473ffffffffffffffffffffffffffffffffffffffff1673ffffffffffffffffffffffffffffffffffffffff16815260200190815260200160002060006101000a81548160ff0219169083151502179055508173ffffffffffffffffffffffffffffffffffffffff16610b7f610fd0565b73ffffffffffffffffffffffffffffffffffffffff167f17307eab39ab6107e8899845ad3d59bd9653f200f220920489ca2b5937696c3183604051610bc49190612a9b565b60405180910390a35050565b610be1610bdb610fd0565b836114f6565b610c20576040517f08c379a0000000000000000000000000000000000000000000000000000000008152600401610c1790612cb8565b60405180910390fd5b610c2c84848484611830565b50505050565b6060610c3d82610f64565b610c7c576040517f08c379a0000000000000000000000000000000000000000000000000000000008152600401610c7390612c18565b60405180910390fd5b6000600660008481526020019081526020016000208054610c9c90612f9d565b80601f0160208091040260200160405190810160405280929190818152602001828054610cc890612f9d565b8015610d155780601f10610cea57610100808354040283529160200191610d15565b820191906000526020600020905b815481529060010190602001808311610cf857829003601f168201915b505050505090506000610d2661188c565b9050600081511415610d3c578192505050610d7f565b600082511115610d71578082604051602001610d59929190612999565b60405160208183030381529060405292505050610d7f565b610d7a846118a3565b925050505b919050565b6008818051602081018201805184825260208301602085012081835280955050505050506000915090508060000160009054906101000a900473ffffffffffffffffffffffffffffffffffffffff1690806001018054610de390612f9d565b80601f0160208091040260200160405190810160405280929190818152602001828054610e0f90612f9d565b8015610e5c5780601f10610e3157610100808354040283529160200191610e5c565b820191906000526020600020905b815481529060010190602001808311610e3f57829003601f168201915b5050505050905082565b6000600560008473ffffffffffffffffffffffffffffffffffffffff1673ffffffffffffffffffffffffffffffffffffffff16815260200190815260200160002060008373ffffffffffffffffffffffffffffffffffffffff1673ffffffffffffffffffffffffffffffffffffffff16815260200190815260200160002060009054906101000a900460ff16905092915050565b60007f01ffc9a7000000000000000000000000000000000000000000000000000000007bffffffffffffffffffffffffffffffffffffffffffffffffffffffff1916827bffffffffffffffffffffffffffffffffffffffffffffffffffffffff1916149050919050565b60008073ffffffffffffffffffffffffffffffffffffffff166002600084815260200190815260200160002060009054906101000a900473ffffffffffffffffffffffffffffffffffffffff1673ffffffffffffffffffffffffffffffffffffffff1614159050919050565b600033905090565b816004600083815260200190815260200160002060006101000a81548173ffffffffffffffffffffffffffffffffffffffff021916908373ffffffffffffffffffffffffffffffffffffffff160217905550808273ffffffffffffffffffffffffffffffffffffffff1661104b83610853565b73ffffffffffffffffffffffffffffffffffffffff167f8c5be1e5ebec7d5bd14f71427d1e84f3dd0314c0f7b2291e5b200ac8c7c3b92560405160405180910390a45050565b600060018460ff16101580156110aa5750600d8460ff16105b80156110b9575060008360ff16115b80156110d457506110ca848361194a565b60ff168360ff1611155b90509392505050565b60606000821415611125576040518060400160405280600181526020017f3000000000000000000000000000000000000000000000000000000000000000815250905061128b565b600082905060005b6000821461115757808061114090612fcf565b915050600a826111509190612e3d565b915061112d565b60008167ffffffffffffffff811115611199577f4e487b7100000000000000000000000000000000000000000000000000000000600052604160045260246000fd5b6040519080825280601f01601f1916602001820160405280156111cb5781602001600182028036833780820191505090505b50905060008290508593505b6000841461128357600a846111ec9190613049565b60306111f89190612de7565b60f81b828261120690612f73565b92508281518110611240577f4e487b7100000000000000000000000000000000000000000000000000000000600052603260045260246000fd5b60200101907effffffffffffffffffffffffffffffffffffffffffffffffffffffffffffff1916908160001a905350600a8461127c9190612e3d565b93506111d7565b819450505050505b919050565b6001816000016000828254019250508190555050565b600081600001549050919050565b600073ffffffffffffffffffffffffffffffffffffffff168273ffffffffffffffffffffffffffffffffffffffff161415611324576040517f08c379a000000000000000000000000000000000000000000000000000000000815260040161131b90612bf8565b60405180910390fd5b61132d81610f64565b1561136d576040517f08c379a000000000000000000000000000000000000000000000000000000000815260040161136490612af8565b60405180910390fd5b61137960008383611a04565b6001600360008473ffffffffffffffffffffffffffffffffffffffff1673ffffffffffffffffffffffffffffffffffffffff16815260200190815260200160002060008282546113c99190612de7565b92505081905550816002600083815260200190815260200160002060006101000a81548173ffffffffffffffffffffffffffffffffffffffff021916908373ffffffffffffffffffffffffffffffffffffffff160217905550808273ffffffffffffffffffffffffffffffffffffffff16600073ffffffffffffffffffffffffffffffffffffffff167fddf252ad1be2c89b69c2b068fc378daa952ba7f163c4a11628f55a4df523b3ef60405160405180910390a45050565b61148b82610f64565b6114ca576040517f08c379a00000000000000000000000000000000000000000000000000000000081526004016114c190612bd8565b60405180910390fd5b806006600084815260200190815260200160002090805190602001906114f1929190611d60565b505050565b600061150182610f64565b611540576040517f08c379a000000000000000000000000000000000000000000000000000000000815260040161153790612b58565b60405180910390fd5b600061154b83610853565b90508073ffffffffffffffffffffffffffffffffffffffff168473ffffffffffffffffffffffffffffffffffffffff1614806115ba57508373ffffffffffffffffffffffffffffffffffffffff166115a2846104b7565b73ffffffffffffffffffffffffffffffffffffffff16145b806115cb57506115ca8185610e66565b5b91505092915050565b8273ffffffffffffffffffffffffffffffffffffffff166115f482610853565b73ffffffffffffffffffffffffffffffffffffffff161461164a576040517f08c379a000000000000000000000000000000000000000000000000000000000815260040161164190612c58565b60405180910390fd5b600073ffffffffffffffffffffffffffffffffffffffff168273ffffffffffffffffffffffffffffffffffffffff1614156116ba576040517f08c379a00000000000000000000000000000000000000000000000000000000081526004016116b190612b18565b60405180910390fd5b6116c5838383611a04565b6116d0600082610fd8565b6001600360008573ffffffffffffffffffffffffffffffffffffffff1673ffffffffffffffffffffffffffffffffffffffff16815260200190815260200160002060008282546117209190612e6e565b925050819055506001600360008473ffffffffffffffffffffffffffffffffffffffff1673ffffffffffffffffffffffffffffffffffffffff16815260200190815260200160002060008282546117779190612de7565b92505081905550816002600083815260200190815260200160002060006101000a81548173ffffffffffffffffffffffffffffffffffffffff021916908373ffffffffffffffffffffffffffffffffffffffff160217905550808273ffffffffffffffffffffffffffffffffffffffff168473ffffffffffffffffffffffffffffffffffffffff167fddf252ad1be2c89b69c2b068fc378daa952ba7f163c4a11628f55a4df523b3ef60405160405180910390a4505050565b61183b8484846115d4565b61184784848484611a09565b611886576040517f08c379a000000000000000000000000000000000000000000000000000000000815260040161187d90612ad8565b60405180910390fd5b50505050565b606060405180602001604052806000815250905090565b60606118ae82610f64565b6118ed576040517f08c379a00000000000000000000000000000000000000000000000000000000081526004016118e490612c78565b60405180910390fd5b60006118f761188c565b905060008151116119175760405180602001604052806000815250611942565b8061192184611ba0565b604051602001611932929190612999565b6040516020818303038152906040525b915050919050565b600060028360ff1614156119ba5760006004836119679190613018565b61ffff16148015611989575060006064836119829190613018565b61ffff1614155b806119a5575060006101908361199f9190613018565b61ffff16145b6119b057601c6119b3565b601d5b90506119fe565b60048360ff1614806119cf575060068360ff16145b806119dd575060098360ff16145b806119eb5750600b8360ff16145b156119f957601e90506119fe565b601f90505b92915050565b505050565b6000611a2a8473ffffffffffffffffffffffffffffffffffffffff16611d4d565b15611b93578373ffffffffffffffffffffffffffffffffffffffff1663150b7a02611a53610fd0565b8786866040518563ffffffff1660e01b8152600401611a759493929190612a1f565b602060405180830381600087803b158015611a8f57600080fd5b505af1925050508015611ac057506040513d601f19601f82011682018060405250810190611abd9190612136565b60015b611b43573d8060008114611af0576040519150601f19603f3d011682016040523d82523d6000602084013e611af5565b606091505b50600081511415611b3b576040517f08c379a0000000000000000000000000000000000000000000000000000000008152600401611b3290612ad8565b60405180910390fd5b805181602001fd5b63150b7a0260e01b7bffffffffffffffffffffffffffffffffffffffffffffffffffffffff1916817bffffffffffffffffffffffffffffffffffffffffffffffffffffffff191614915050611b98565b600190505b949350505050565b60606000821415611be8576040518060400160405280600181526020017f30000000000000000000000000000000000000000000000000000000000000008152509050611d48565b600082905060005b60008214611c1a578080611c0390612fcf565b915050600a82611c139190612e3d565b9150611bf0565b60008167ffffffffffffffff811115611c5c577f4e487b7100000000000000000000000000000000000000000000000000000000600052604160045260246000fd5b6040519080825280601f01601f191660200182016040528015611c8e5781602001600182028036833780820191505090505b5090505b60008514611d4157600182611ca79190612e6e565b9150600a85611cb69190613049565b6030611cc29190612de7565b60f81b818381518110611cfe577f4e487b7100000000000000000000000000000000000000000000000000000000600052603260045260246000fd5b60200101907effffffffffffffffffffffffffffffffffffffffffffffffffffffffffffff1916908160001a905350600a85611d3a9190612e3d565b9450611c92565b8093505050505b919050565b600080823b905060008111915050919050565b828054611d6c90612f9d565b90600052602060002090601f016020900481019282611d8e5760008555611dd5565b82601f10611da757805160ff1916838001178555611dd5565b82800160010185558215611dd5579182015b82811115611dd4578251825591602001919060010190611db9565b5b509050611de29190611de6565b5090565b5b80821115611dff576000816000905550600101611de7565b5090565b6000611e16611e1184612d44565b612d13565b905082815260208101848484011115611e2e57600080fd5b611e39848285612f31565b509392505050565b6000611e54611e4f84612d74565b612d13565b905082815260208101848484011115611e6c57600080fd5b611e77848285612f31565b509392505050565b600081359050611e8e81613147565b92915050565b600081359050611ea38161315e565b92915050565b600081359050611eb881613175565b92915050565b600081519050611ecd81613175565b92915050565b600082601f830112611ee457600080fd5b8135611ef4848260208601611e03565b91505092915050565b600082601f830112611f0e57600080fd5b8135611f1e848260208601611e41565b91505092915050565b600081359050611f368161318c565b92915050565b600081359050611f4b816131a3565b92915050565b600081359050611f60816131ba565b92915050565b600060208284031215611f7857600080fd5b6000611f8684828501611e7f565b91505092915050565b60008060408385031215611fa257600080fd5b6000611fb085828601611e7f565b9250506020611fc185828601611e7f565b9150509250929050565b600080600060608486031215611fe057600080fd5b6000611fee86828701611e7f565b9350506020611fff86828701611e7f565b925050604061201086828701611f3c565b9150509250925092565b6000806000806080858703121561203057600080fd5b600061203e87828801611e7f565b945050602061204f87828801611e7f565b935050604061206087828801611f3c565b925050606085013567ffffffffffffffff81111561207d57600080fd5b61208987828801611ed3565b91505092959194509250565b600080604083850312156120a857600080fd5b60006120b685828601611e7f565b92505060206120c785828601611e94565b9150509250929050565b600080604083850312156120e457600080fd5b60006120f285828601611e7f565b925050602061210385828601611f3c565b9150509250929050565b60006020828403121561211f57600080fd5b600061212d84828501611ea9565b91505092915050565b60006020828403121561214857600080fd5b600061215684828501611ebe565b91505092915050565b60006020828403121561217157600080fd5b600082013567ffffffffffffffff81111561218b57600080fd5b61219784828501611efd565b91505092915050565b6000602082840312156121b257600080fd5b60006121c084828501611f3c565b91505092915050565b600080600080608085870312156121df57600080fd5b60006121ed87828801611f51565b94505060206121fe87828801611f51565b935050604061220f87828801611f27565b925050606085013567ffffffffffffffff81111561222c57600080fd5b61223887828801611efd565b91505092959194509250565b61224d81612ea2565b82525050565b61225c81612eb4565b82525050565b600061226d82612da4565b6122778185612dba565b9350612287818560208601612f40565b61229081613136565b840191505092915050565b60006122a682612daf565b6122b08185612dcb565b93506122c0818560208601612f40565b6122c981613136565b840191505092915050565b60006122df82612daf565b6122e98185612ddc565b93506122f9818560208601612f40565b80840191505092915050565b6000612312603283612dcb565b91507f4552433732313a207472616e7366657220746f206e6f6e20455243373231526560008301527f63656976657220696d706c656d656e74657200000000000000000000000000006020830152604082019050919050565b6000612378601c83612dcb565b91507f4552433732313a20746f6b656e20616c7265616479206d696e746564000000006000830152602082019050919050565b60006123b8602483612dcb565b91507f4552433732313a207472616e7366657220746f20746865207a65726f2061646460008301527f72657373000000000000000000000000000000000000000000000000000000006020830152604082019050919050565b600061241e601983612dcb565b91507f4552433732313a20617070726f766520746f2063616c6c6572000000000000006000830152602082019050919050565b600061245e602c83612dcb565b91507f4552433732313a206f70657261746f7220717565727920666f72206e6f6e657860008301527f697374656e7420746f6b656e00000000000000000000000000000000000000006020830152604082019050919050565b60006124c4603883612dcb565b91507f4552433732313a20617070726f76652063616c6c6572206973206e6f74206f7760008301527f6e6572206e6f7220617070726f76656420666f7220616c6c00000000000000006020830152604082019050919050565b600061252a602a83612dcb565b91507f4552433732313a2062616c616e636520717565727920666f7220746865207a6560008301527f726f2061646472657373000000000000000000000000000000000000000000006020830152604082019050919050565b6000612590602983612dcb565b91507f4552433732313a206f776e657220717565727920666f72206e6f6e657869737460008301527f656e7420746f6b656e00000000000000000000000000000000000000000000006020830152604082019050919050565b60006125f6602e83612dcb565b91507f45524337323155524953746f726167653a2055524920736574206f66206e6f6e60008301527f6578697374656e7420746f6b656e0000000000000000000000000000000000006020830152604082019050919050565b600061265c602083612dcb565b91507f4552433732313a206d696e7420746f20746865207a65726f20616464726573736000830152602082019050919050565b600061269c603183612dcb565b91507f45524337323155524953746f726167653a2055524920717565727920666f722060008301527f6e6f6e6578697374656e7420746f6b656e0000000000000000000000000000006020830152604082019050919050565b6000612702602c83612dcb565b91507f4552433732313a20617070726f76656420717565727920666f72206e6f6e657860008301527f697374656e7420746f6b656e00000000000000000000000000000000000000006020830152604082019050919050565b6000612768602983612dcb565b91507f4552433732313a207472616e73666572206f6620746f6b656e2074686174206960008301527f73206e6f74206f776e00000000000000000000000000000000000000000000006020830152604082019050919050565b60006127ce602f83612dcb565b91507f4552433732314d657461646174613a2055524920717565727920666f72206e6f60008301527f6e6578697374656e7420746f6b656e00000000000000000000000000000000006020830152604082019050919050565b6000612834602183612dcb565b91507f4552433732313a20617070726f76616c20746f2063757272656e74206f776e6560008301527f72000000000000000000000000000000000000000000000000000000000000006020830152604082019050919050565b600061289a603183612dcb565b91507f4552433732313a207472616e736665722063616c6c6572206973206e6f74206f60008301527f776e6572206e6f7220617070726f7665640000000000000000000000000000006020830152604082019050919050565b6000612900601283612dcb565b91507f4d7573742062652076616c6964206461746500000000000000000000000000006000830152602082019050919050565b6000612940600183612ddc565b91507f2f000000000000000000000000000000000000000000000000000000000000006000830152600182019050919050565b61297c81612f1a565b82525050565b600061298e82846122d4565b915081905092915050565b60006129a582856122d4565b91506129b182846122d4565b91508190509392505050565b60006129c982866122d4565b91506129d482612933565b91506129e082856122d4565b91506129eb82612933565b91506129f782846122d4565b9150819050949350505050565b6000602082019050612a196000830184612244565b92915050565b6000608082019050612a346000830187612244565b612a416020830186612244565b612a4e6040830185612973565b8181036060830152612a608184612262565b905095945050505050565b6000604082019050612a806000830185612244565b8181036020830152612a92818461229b565b90509392505050565b6000602082019050612ab06000830184612253565b92915050565b60006020820190508181036000830152612ad0818461229b565b905092915050565b60006020820190508181036000830152612af181612305565b9050919050565b60006020820190508181036000830152612b118161236b565b9050919050565b60006020820190508181036000830152612b31816123ab565b9050919050565b60006020820190508181036000830152612b5181612411565b9050919050565b60006020820190508181036000830152612b7181612451565b9050919050565b60006020820190508181036000830152612b91816124b7565b9050919050565b60006020820190508181036000830152612bb18161251d565b9050919050565b60006020820190508181036000830152612bd181612583565b9050919050565b60006020820190508181036000830152612bf1816125e9565b9050919050565b60006020820190508181036000830152612c118161264f565b9050919050565b60006020820190508181036000830152612c318161268f565b9050919050565b60006020820190508181036000830152612c51816126f5565b9050919050565b60006020820190508181036000830152612c718161275b565b9050919050565b60006020820190508181036000830152612c91816127c1565b9050919050565b60006020820190508181036000830152612cb181612827565b9050919050565b60006020820190508181036000830152612cd18161288d565b9050919050565b60006020820190508181036000830152612cf1816128f3565b9050919050565b6000602082019050612d0d6000830184612973565b92915050565b6000604051905081810181811067ffffffffffffffff82111715612d3a57612d39613107565b5b8060405250919050565b600067ffffffffffffffff821115612d5f57612d5e613107565b5b601f19601f8301169050602081019050919050565b600067ffffffffffffffff821115612d8f57612d8e613107565b5b601f19601f8301169050602081019050919050565b600081519050919050565b600081519050919050565b600082825260208201905092915050565b600082825260208201905092915050565b600081905092915050565b6000612df282612f1a565b9150612dfd83612f1a565b9250827fffffffffffffffffffffffffffffffffffffffffffffffffffffffffffffffff03821115612e3257612e3161307a565b5b828201905092915050565b6000612e4882612f1a565b9150612e5383612f1a565b925082612e6357612e626130a9565b5b828204905092915050565b6000612e7982612f1a565b9150612e8483612f1a565b925082821015612e9757612e9661307a565b5b828203905092915050565b6000612ead82612efa565b9050919050565b60008115159050919050565b60007fffffffff0000000000000000000000000000000000000000000000000000000082169050919050565b600061ffff82169050919050565b600073ffffffffffffffffffffffffffffffffffffffff82169050919050565b6000819050919050565b600060ff82169050919050565b82818337600083830152505050565b60005b83811015612f5e578082015181840152602081019050612f43565b83811115612f6d576000848401525b50505050565b6000612f7e82612f1a565b91506000821415612f9257612f9161307a565b5b600182039050919050565b60006002820490506001821680612fb557607f821691505b60208210811415612fc957612fc86130d8565b5b50919050565b6000612fda82612f1a565b91507fffffffffffffffffffffffffffffffffffffffffffffffffffffffffffffffff82141561300d5761300c61307a565b5b600182019050919050565b600061302382612eec565b915061302e83612eec565b92508261303e5761303d6130a9565b5b828206905092915050565b600061305482612f1a565b915061305f83612f1a565b92508261306f5761306e6130a9565b5b828206905092915050565b7f4e487b7100000000000000000000000000000000000000000000000000000000600052601160045260246000fd5b7f4e487b7100000000000000000000000000000000000000000000000000000000600052601260045260246000fd5b7f4e487b7100000000000000000000000000000000000000000000000000000000600052602260045260246000fd5b7f4e487b7100000000000000000000000000000000000000000000000000000000600052604160045260246000fd5b6000601f19601f8301169050919050565b61315081612ea2565b811461315b57600080fd5b50565b61316781612eb4565b811461317257600080fd5b50565b61317e81612ec0565b811461318957600080fd5b50565b61319581612eec565b81146131a057600080fd5b50565b6131ac81612f1a565b81146131b757600080fd5b50565b6131c381612f24565b81146131ce57600080fd5b5056fea264697066735822122039de6ea18b4ae736c8a062bc7a0e2526d69cd253c701b1768a48ece2a664a6e264736f6c63430008000033",
  "linkReferences": {},
  "deployedLinkReferences": {}
}