{
  "_format": "hh-sol-artifact-1",
  "contractName": "BillionDollarCalendar",
  "sourceName": "contracts/BillionDollarCalendar.sol",
  "abi": [
    {
      "inputs": [],
      "stateMutability": "nonpayable",
      "type": "constructor"
    },
    {
      "inputs": [
        {
          "internalType": "uint8",
          "name": "month",
          "type": "uint8"
        },
        {
          "internalType": "uint8",
          "name": "day",
          "type": "uint8"
        },
        {
          "internalType": "uint16",
          "name": "year",
          "type": "uint16"
        },
        {
          "internalType": "string",
          "name": "bitmapData",
          "type": "string"
        }
      ],
      "name": "buyDate",
      "outputs": [],
      "stateMutability": "nonpayable",
      "type": "function"
    },
    {
      "inputs": [
        {
          "internalType": "string",
          "name": "",
          "type": "string"
        }
      ],
      "name": "dateOwners",
      "outputs": [
        {
          "internalType": "address",
          "name": "owner",
          "type": "address"
        },
        {
          "internalType": "string",
          "name": "bitmapData",
          "type": "string"
        }
      ],
      "stateMutability": "view",
      "type": "function"
    },
    {
      "inputs": [],
      "name": "owner",
      "outputs": [
        {
          "internalType": "address",
          "name": "",
          "type": "address"
        }
      ],
      "stateMutability": "view",
      "type": "function"
    },
    {
      "inputs": [
        {
          "internalType": "uint8",
          "name": "month",
          "type": "uint8"
        },
        {
          "internalType": "uint8",
          "name": "day",
          "type": "uint8"
        },
        {
          "internalType": "uint16",
          "name": "year",
          "type": "uint16"
        },
        {
          "internalType": "string",
          "name": "bitmapData",
          "type": "string"
        },
        {
          "internalType": "address",
          "name": "toAddress",
          "type": "address"
        }
      ],
      "name": "transferDate",
      "outputs": [],
      "stateMutability": "nonpayable",
      "type": "function"
    }
  ],
  "bytecode": "0x608060405234801561001057600080fd5b50336000806101000a81548173ffffffffffffffffffffffffffffffffffffffff021916908373ffffffffffffffffffffffffffffffffffffffff160217905550611061806100606000396000f3fe608060405234801561001057600080fd5b506004361061004c5760003560e01c80630ddc93b414610051578063100099a5146101545780638da5cb5b14610237578063d40384e71461026b575b600080fd5b610152600480360360a081101561006757600080fd5b81019080803560ff169060200190929190803560ff169060200190929190803561ffff169060200190929190803590602001906401000000008111156100ac57600080fd5b8201836020820111156100be57600080fd5b803590602001918460018302840111640100000000831117156100e057600080fd5b91908080601f016020809104026020016040519081016040528093929190818152602001838380828437600081840152601f19601f820116905080830192505050505050509192919290803573ffffffffffffffffffffffffffffffffffffffff1690602001909291905050506103bc565b005b6102356004803603608081101561016a57600080fd5b81019080803560ff169060200190929190803560ff169060200190929190803561ffff169060200190929190803590602001906401000000008111156101af57600080fd5b8201836020820111156101c157600080fd5b803590602001918460018302840111640100000000831117156101e357600080fd5b91908080601f016020809104026020016040519081016040528093929190818152602001838380828437600081840152601f19601f8201169050808301925050505050505091929192905050506107d3565b005b61023f610c07565b604051808273ffffffffffffffffffffffffffffffffffffffff16815260200191505060405180910390f35b6103246004803603602081101561028157600080fd5b810190808035906020019064010000000081111561029e57600080fd5b8201836020820111156102b057600080fd5b803590602001918460018302840111640100000000831117156102d257600080fd5b91908080601f016020809104026020016040519081016040528093929190818152602001838380828437600081840152601f19601f820116905080830192505050505050509192919290505050610c2b565b604051808373ffffffffffffffffffffffffffffffffffffffff16815260200180602001828103825283818151815260200191508051906020019080838360005b83811015610380578082015181840152602081019050610365565b50505050905090810190601f1680156103ad5780820380516001836020036101000a031916815260200191505b50935050505060405180910390f35b6103c7858585610d1d565b610439576040517f08c379a00000000000000000000000000000000000000000000000000000000081526004018080602001828103825260128152602001807f4d7573742062652076616c69642064617465000000000000000000000000000081525060200191505060405180910390fd5b60606104478660ff16610d69565b6104538660ff16610d69565b6104608661ffff16610d69565b6040516020018084805190602001908083835b602083106104965780518252602082019150602081019050602083039250610473565b6001836020036101000a038019825116818451168082178552505050505050905001807f2f0000000000000000000000000000000000000000000000000000000000000081525060010183805190602001908083835b6020831061050f57805182526020820191506020810190506020830392506104ec565b6001836020036101000a038019825116818451168082178552505050505050905001807f2f0000000000000000000000000000000000000000000000000000000000000081525060010182805190602001908083835b602083106105885780518252602082019150602081019050602083039250610565565b6001836020036101000a038019825116818451168082178552505050505050905001935050505060405160208183030381529060405290503373ffffffffffffffffffffffffffffffffffffffff166001826040518082805190602001908083835b6020831061060d57805182526020820191506020810190506020830392506105ea565b6001836020036101000a038019825116818451168082178552505050505050905001915050908152602001604051809103902060000160009054906101000a900473ffffffffffffffffffffffffffffffffffffffff1673ffffffffffffffffffffffffffffffffffffffff16146106d0576040517f08c379a000000000000000000000000000000000000000000000000000000000815260040180806020018281038252602181526020018061100b6021913960400191505060405180910390fd5b60405180604001604052808373ffffffffffffffffffffffffffffffffffffffff168152602001848152506001826040518082805190602001908083835b60208310610731578051825260208201915060208101905060208303925061070e565b6001836020036101000a038019825116818451168082178552505050505050905001915050908152602001604051809103902060008201518160000160006101000a81548173ffffffffffffffffffffffffffffffffffffffff021916908373ffffffffffffffffffffffffffffffffffffffff16021790555060208201518160010190805190602001906107c7929190610f6d565b50905050505050505050565b6107de848484610d1d565b610850576040517f08c379a00000000000000000000000000000000000000000000000000000000081526004018080602001828103825260128152602001807f4d7573742062652076616c69642064617465000000000000000000000000000081525060200191505060405180910390fd5b606061085e8560ff16610d69565b61086a8560ff16610d69565b6108778561ffff16610d69565b6040516020018084805190602001908083835b602083106108ad578051825260208201915060208101905060208303925061088a565b6001836020036101000a038019825116818451168082178552505050505050905001807f2f0000000000000000000000000000000000000000000000000000000000000081525060010183805190602001908083835b602083106109265780518252602082019150602081019050602083039250610903565b6001836020036101000a038019825116818451168082178552505050505050905001807f2f0000000000000000000000000000000000000000000000000000000000000081525060010182805190602001908083835b6020831061099f578051825260208201915060208101905060208303925061097c565b6001836020036101000a03801982511681845116808217855250505050505090500193505050506040516020818303038152906040529050600073ffffffffffffffffffffffffffffffffffffffff166001826040518082805190602001908083835b60208310610a255780518252602082019150602081019050602083039250610a02565b6001836020036101000a038019825116818451168082178552505050505050905001915050908152602001604051809103902060000160009054906101000a900473ffffffffffffffffffffffffffffffffffffffff1673ffffffffffffffffffffffffffffffffffffffff1614610b05576040517f08c379a00000000000000000000000000000000000000000000000000000000081526004018080602001828103825260128152602001807f4461746520616c7265616479206f776e6564000000000000000000000000000081525060200191505060405180910390fd5b60405180604001604052803373ffffffffffffffffffffffffffffffffffffffff168152602001838152506001826040518082805190602001908083835b60208310610b665780518252602082019150602081019050602083039250610b43565b6001836020036101000a038019825116818451168082178552505050505050905001915050908152602001604051809103902060008201518160000160006101000a81548173ffffffffffffffffffffffffffffffffffffffff021916908373ffffffffffffffffffffffffffffffffffffffff1602179055506020820151816001019080519060200190610bfc929190610f6d565b509050505050505050565b60008054906101000a900473ffffffffffffffffffffffffffffffffffffffff1681565b6001818051602081018201805184825260208301602085012081835280955050505050506000915090508060000160009054906101000a900473ffffffffffffffffffffffffffffffffffffffff1690806001018054600181600116156101000203166002900480601f016020809104026020016040519081016040528092919081815260200182805460018160011615610100020316600290048015610d135780601f10610ce857610100808354040283529160200191610d13565b820191906000526020600020905b815481529060010190602001808311610cf657829003601f168201915b5050505050905082565b600060018460ff1610158015610d365750600d8460ff16105b8015610d45575060008360ff16115b8015610d605750610d568483610ead565b60ff168360ff1611155b90509392505050565b60606000821415610db1576040518060400160405280600181526020017f30000000000000000000000000000000000000000000000000000000000000008152509050610ea8565b600082905060005b60008214610ddb578080600101915050600a8281610dd357fe5b049150610db9565b60608167ffffffffffffffff81118015610df457600080fd5b506040519080825280601f01601f191660200182016040528015610e275781602001600182028036833780820191505090505b50905060006001830390505b60008614610ea057600a8681610e4557fe5b0660300160f81b82828060019003935081518110610e5f57fe5b60200101907effffffffffffffffffffffffffffffffffffffffffffffffffffffffffffff1916908160001a905350600a8681610e9857fe5b049550610e33565b819450505050505b919050565b600060028360ff161415610f2357600060048361ffff1681610ecb57fe5b0661ffff16148015610ef05750600060648361ffff1681610ee857fe5b0661ffff1614155b80610f0e575060006101908361ffff1681610f0757fe5b0661ffff16145b610f1957601c610f1c565b601d5b9050610f67565b60048360ff161480610f38575060068360ff16145b80610f46575060098360ff16145b80610f545750600b8360ff16145b15610f6257601e9050610f67565b601f90505b92915050565b828054600181600116156101000203166002900490600052602060002090601f016020900481019282601f10610fae57805160ff1916838001178555610fdc565b82800160010185558215610fdc579182015b82811115610fdb578251825591602001919060010190610fc0565b5b509050610fe99190610fed565b5090565b5b80821115611006576000816000905550600101610fee565b509056fe4f6e6c79206f776e65722063616e207472616e7366657220746869732064617465a2646970667358221220800a2a1dd5488e342530ed9695b41f1ccc9bb7eb7a0826aececafaca844bb40f64736f6c63430007030033",
  "linkReferences": {},
  "deployedLinkReferences": {}
}