{
  "_format": "hh-sol-artifact-1",
  "contractName": "BillionDollarCalendar",
  "sourceName": "contracts/BillionDollarCalendar.sol",
  "abi": [
    {
      "inputs": [],
      "stateMutability": "nonpayable",
      "type": "constructor"
    },
    {
      "inputs": [
        {
          "internalType": "uint8",
          "name": "month",
          "type": "uint8"
        },
        {
          "internalType": "uint8",
          "name": "day",
          "type": "uint8"
        },
        {
          "internalType": "uint16",
          "name": "year",
          "type": "uint16"
        },
        {
          "internalType": "uint256",
          "name": "bitmapData",
          "type": "uint256"
        }
      ],
      "name": "buyDate",
      "outputs": [],
      "stateMutability": "nonpayable",
      "type": "function"
    },
    {
      "inputs": [
        {
          "internalType": "string",
          "name": "",
          "type": "string"
        }
      ],
      "name": "dateOwners",
      "outputs": [
        {
          "internalType": "address",
          "name": "owner",
          "type": "address"
        },
        {
          "internalType": "uint256",
          "name": "bitmapData",
          "type": "uint256"
        }
      ],
      "stateMutability": "view",
      "type": "function"
    },
    {
      "inputs": [],
      "name": "owner",
      "outputs": [
        {
          "internalType": "address",
          "name": "",
          "type": "address"
        }
      ],
      "stateMutability": "view",
      "type": "function"
    },
    {
      "inputs": [
        {
          "internalType": "uint8",
          "name": "month",
          "type": "uint8"
        },
        {
          "internalType": "uint8",
          "name": "day",
          "type": "uint8"
        },
        {
          "internalType": "uint16",
          "name": "year",
          "type": "uint16"
        },
        {
          "internalType": "uint256",
          "name": "bitmapData",
          "type": "uint256"
        },
        {
          "internalType": "address",
          "name": "toAddress",
          "type": "address"
        }
      ],
      "name": "transferDate",
      "outputs": [],
      "stateMutability": "nonpayable",
      "type": "function"
    }
  ],
  "bytecode": "0x608060405234801561001057600080fd5b50336000806101000a81548173ffffffffffffffffffffffffffffffffffffffff021916908373ffffffffffffffffffffffffffffffffffffffff160217905550610d87806100606000396000f3fe608060405234801561001057600080fd5b506004361061004c5760003560e01c80630dac0353146100515780637e38b2f2146100c75780638da5cb5b1461011d578063d40384e714610151575b600080fd5b6100c5600480360360a081101561006757600080fd5b81019080803560ff169060200190929190803560ff169060200190929190803561ffff16906020019092919080359060200190929190803573ffffffffffffffffffffffffffffffffffffffff16906020019092919050505061023d565b005b61011b600480360360808110156100dd57600080fd5b81019080803560ff169060200190929190803560ff169060200190929190803561ffff16906020019092919080359060200190929190505050610641565b005b610125610a62565b604051808273ffffffffffffffffffffffffffffffffffffffff16815260200191505060405180910390f35b61020a6004803603602081101561016757600080fd5b810190808035906020019064010000000081111561018457600080fd5b82018360208201111561019657600080fd5b803590602001918460018302840111640100000000831117156101b857600080fd5b91908080601f016020809104026020016040519081016040528093929190818152602001838380828437600081840152601f19601f820116905080830192505050505050509192919290505050610a86565b604051808373ffffffffffffffffffffffffffffffffffffffff1681526020018281526020019250505060405180910390f35b610248858585610ae0565b6102ba576040517f08c379a00000000000000000000000000000000000000000000000000000000081526004018080602001828103825260128152602001807f4d7573742062652076616c69642064617465000000000000000000000000000081525060200191505060405180910390fd5b60606102c88660ff16610b2c565b6102d48660ff16610b2c565b6102e18661ffff16610b2c565b6040516020018084805190602001908083835b6020831061031757805182526020820191506020810190506020830392506102f4565b6001836020036101000a038019825116818451168082178552505050505050905001807f2f0000000000000000000000000000000000000000000000000000000000000081525060010183805190602001908083835b60208310610390578051825260208201915060208101905060208303925061036d565b6001836020036101000a038019825116818451168082178552505050505050905001807f2f0000000000000000000000000000000000000000000000000000000000000081525060010182805190602001908083835b6020831061040957805182526020820191506020810190506020830392506103e6565b6001836020036101000a038019825116818451168082178552505050505050905001935050505060405160208183030381529060405290503373ffffffffffffffffffffffffffffffffffffffff166001826040518082805190602001908083835b6020831061048e578051825260208201915060208101905060208303925061046b565b6001836020036101000a038019825116818451168082178552505050505050905001915050908152602001604051809103902060000160009054906101000a900473ffffffffffffffffffffffffffffffffffffffff1673ffffffffffffffffffffffffffffffffffffffff1614610551576040517f08c379a0000000000000000000000000000000000000000000000000000000008152600401808060200182810382526021815260200180610d316021913960400191505060405180910390fd5b60405180604001604052808373ffffffffffffffffffffffffffffffffffffffff168152602001848152506001826040518082805190602001908083835b602083106105b2578051825260208201915060208101905060208303925061058f565b6001836020036101000a038019825116818451168082178552505050505050905001915050908152602001604051809103902060008201518160000160006101000a81548173ffffffffffffffffffffffffffffffffffffffff021916908373ffffffffffffffffffffffffffffffffffffffff16021790555060208201518160010155905050505050505050565b61064c848484610ae0565b6106be576040517f08c379a00000000000000000000000000000000000000000000000000000000081526004018080602001828103825260128152602001807f4d7573742062652076616c69642064617465000000000000000000000000000081525060200191505060405180910390fd5b60606106cc8560ff16610b2c565b6106d88560ff16610b2c565b6106e58561ffff16610b2c565b6040516020018084805190602001908083835b6020831061071b57805182526020820191506020810190506020830392506106f8565b6001836020036101000a038019825116818451168082178552505050505050905001807f2f0000000000000000000000000000000000000000000000000000000000000081525060010183805190602001908083835b602083106107945780518252602082019150602081019050602083039250610771565b6001836020036101000a038019825116818451168082178552505050505050905001807f2f0000000000000000000000000000000000000000000000000000000000000081525060010182805190602001908083835b6020831061080d57805182526020820191506020810190506020830392506107ea565b6001836020036101000a03801982511681845116808217855250505050505090500193505050506040516020818303038152906040529050600073ffffffffffffffffffffffffffffffffffffffff166001826040518082805190602001908083835b602083106108935780518252602082019150602081019050602083039250610870565b6001836020036101000a038019825116818451168082178552505050505050905001915050908152602001604051809103902060000160009054906101000a900473ffffffffffffffffffffffffffffffffffffffff1673ffffffffffffffffffffffffffffffffffffffff1614610973576040517f08c379a00000000000000000000000000000000000000000000000000000000081526004018080602001828103825260128152602001807f4461746520616c7265616479206f776e6564000000000000000000000000000081525060200191505060405180910390fd5b60405180604001604052803373ffffffffffffffffffffffffffffffffffffffff168152602001838152506001826040518082805190602001908083835b602083106109d457805182526020820191506020810190506020830392506109b1565b6001836020036101000a038019825116818451168082178552505050505050905001915050908152602001604051809103902060008201518160000160006101000a81548173ffffffffffffffffffffffffffffffffffffffff021916908373ffffffffffffffffffffffffffffffffffffffff160217905550602082015181600101559050505050505050565b60008054906101000a900473ffffffffffffffffffffffffffffffffffffffff1681565b6001818051602081018201805184825260208301602085012081835280955050505050506000915090508060000160009054906101000a900473ffffffffffffffffffffffffffffffffffffffff16908060010154905082565b600060018460ff1610158015610af95750600d8460ff16105b8015610b08575060008360ff16115b8015610b235750610b198483610c70565b60ff168360ff1611155b90509392505050565b60606000821415610b74576040518060400160405280600181526020017f30000000000000000000000000000000000000000000000000000000000000008152509050610c6b565b600082905060005b60008214610b9e578080600101915050600a8281610b9657fe5b049150610b7c565b60608167ffffffffffffffff81118015610bb757600080fd5b506040519080825280601f01601f191660200182016040528015610bea5781602001600182028036833780820191505090505b50905060006001830390505b60008614610c6357600a8681610c0857fe5b0660300160f81b82828060019003935081518110610c2257fe5b60200101907effffffffffffffffffffffffffffffffffffffffffffffffffffffffffffff1916908160001a905350600a8681610c5b57fe5b049550610bf6565b819450505050505b919050565b600060028360ff161415610ce657600060048361ffff1681610c8e57fe5b0661ffff16148015610cb35750600060648361ffff1681610cab57fe5b0661ffff1614155b80610cd1575060006101908361ffff1681610cca57fe5b0661ffff16145b610cdc57601c610cdf565b601d5b9050610d2a565b60048360ff161480610cfb575060068360ff16145b80610d09575060098360ff16145b80610d175750600b8360ff16145b15610d2557601e9050610d2a565b601f90505b9291505056fe4f6e6c79206f776e65722063616e207472616e7366657220746869732064617465a26469706673582212201eb247ab96ff6f80ebf5e49c36264394005bc1df583602b664c03e730f17c6ae64736f6c63430007030033",
  "linkReferences": {},
  "deployedLinkReferences": {}
}